{
  "_format": "hh-sol-artifact-1",
  "contractName": "LibraryV2",
  "sourceName": "contracts/LibraryV2.sol",
  "abi": [
    {
      "inputs": [],
      "stateMutability": "payable",
      "type": "constructor"
    },
    {
      "anonymous": false,
      "inputs": [
        {
          "indexed": false,
          "internalType": "bytes6",
          "name": "_isbn",
          "type": "bytes6"
        },
        {
          "indexed": false,
          "internalType": "address",
          "name": "_address",
          "type": "address"
        }
      ],
      "name": "BookBorrowed",
      "type": "event"
    },
    {
      "anonymous": false,
      "inputs": [
        {
          "indexed": false,
          "internalType": "bytes6",
          "name": "_isbn",
          "type": "bytes6"
        },
        {
          "indexed": false,
          "internalType": "address",
          "name": "_address",
          "type": "address"
        }
      ],
      "name": "BookReturned",
      "type": "event"
    },
    {
      "anonymous": false,
      "inputs": [
        {
          "indexed": false,
          "internalType": "bytes6",
          "name": "_isbn",
          "type": "bytes6"
        },
        {
          "indexed": false,
          "internalType": "uint8",
          "name": "_qty",
          "type": "uint8"
        }
      ],
      "name": "NewBook",
      "type": "event"
    },
    {
      "anonymous": false,
      "inputs": [
        {
          "indexed": false,
          "internalType": "address",
          "name": "_address",
          "type": "address"
        }
      ],
      "name": "NewDepositFallback",
      "type": "event"
    },
    {
      "anonymous": false,
      "inputs": [
        {
          "indexed": false,
          "internalType": "address",
          "name": "_address",
          "type": "address"
        }
      ],
      "name": "NewDepositReceive",
      "type": "event"
    },
    {
      "anonymous": false,
      "inputs": [
        {
          "indexed": true,
          "internalType": "address",
          "name": "previousOwner",
          "type": "address"
        },
        {
          "indexed": true,
          "internalType": "address",
          "name": "newOwner",
          "type": "address"
        }
      ],
      "name": "OwnershipTransferred",
      "type": "event"
    },
    {
      "stateMutability": "payable",
      "type": "fallback"
    },
    {
      "inputs": [
        {
          "internalType": "bytes6",
          "name": "_isbn",
          "type": "bytes6"
        },
        {
          "internalType": "uint8",
          "name": "_qty",
          "type": "uint8"
        }
      ],
      "name": "addBook",
      "outputs": [],
      "stateMutability": "nonpayable",
      "type": "function"
    },
    {
      "inputs": [
        {
          "internalType": "bytes6",
          "name": "_isbn",
          "type": "bytes6"
        }
      ],
      "name": "borrow",
      "outputs": [],
      "stateMutability": "payable",
      "type": "function"
    },
    {
      "inputs": [],
      "name": "getAvailableBooks",
      "outputs": [
        {
          "internalType": "bytes6[]",
          "name": "",
          "type": "bytes6[]"
        }
      ],
      "stateMutability": "view",
      "type": "function"
    },
    {
      "inputs": [
        {
          "internalType": "bytes6",
          "name": "_isbn",
          "type": "bytes6"
        }
      ],
      "name": "getBookHistory",
      "outputs": [
        {
          "internalType": "address[]",
          "name": "",
          "type": "address[]"
        }
      ],
      "stateMutability": "view",
      "type": "function"
    },
    {
      "inputs": [],
      "name": "getFee",
      "outputs": [
        {
          "internalType": "uint256",
          "name": "",
          "type": "uint256"
        }
      ],
      "stateMutability": "view",
      "type": "function"
    },
    {
      "inputs": [
        {
          "internalType": "bytes6",
          "name": "_isbn",
          "type": "bytes6"
        }
      ],
      "name": "getStock",
      "outputs": [
        {
          "internalType": "uint8",
          "name": "",
          "type": "uint8"
        }
      ],
      "stateMutability": "view",
      "type": "function"
    },
    {
      "inputs": [],
      "name": "hasBorrowed",
      "outputs": [
        {
          "internalType": "bytes6",
          "name": "",
          "type": "bytes6"
        }
      ],
      "stateMutability": "view",
      "type": "function"
    },
    {
      "inputs": [],
      "name": "owner",
      "outputs": [
        {
          "internalType": "address",
          "name": "",
          "type": "address"
        }
      ],
      "stateMutability": "view",
      "type": "function"
    },
    {
      "inputs": [],
      "name": "renounceOwnership",
      "outputs": [],
      "stateMutability": "nonpayable",
      "type": "function"
    },
    {
      "inputs": [],
      "name": "returnBook",
      "outputs": [],
      "stateMutability": "payable",
      "type": "function"
    },
    {
      "inputs": [
        {
          "internalType": "address",
          "name": "newOwner",
          "type": "address"
        }
      ],
      "name": "transferOwnership",
      "outputs": [],
      "stateMutability": "nonpayable",
      "type": "function"
    },
    {
      "stateMutability": "payable",
      "type": "receive"
    }
  ],
  "bytecode": "0x608060405266038d7ea4c680006006556100183361001d565b61006d565b600080546001600160a01b038381166001600160a01b0319831681178455604051919092169283917f8be0079c531659141344cd1fd0a4f28419497f9722a3daafe3b4186f6b6457e09190a35050565b610d708061007c6000396000f3fe6080604052600436106100c05760003560e01c80638422f5bb11610074578063d57f76ab1161004e578063d57f76ab14610275578063d6c084d914610288578063f2fde38b146102aa576100fb565b80638422f5bb146101f65780638da5cb5b1461022f578063ced72f8714610257576100fb565b8063772aaeb5116100a5578063772aaeb5146101785780637c1361b2146101805780638421190f146101d6576100fb565b80632c933e701461012b578063715018a614610161576100fb565b366100fb576040513381527f99b42b187bbe800fc531d54affae6764937dedb754d1865536b767565e0f8351906020015b60405180910390a1005b6040513381527fec693ca1c6788d235c011d3f56e4af1bfa63263b1b44eddc71c7f01258f4362a906020016100f1565b34801561013757600080fd5b5061014b610146366004610ba5565b6102ca565b6040516101589190610bc7565b60405180910390f35b34801561016d57600080fd5b50610176610341565b005b610176610355565b34801561018c57600080fd5b506101c461019b366004610ba5565b6001600160d01b0319166000908152600160205260409020546601000000000000900460ff1690565b60405160ff9091168152602001610158565b3480156101e257600080fd5b506101766101f1366004610c14565b6104b3565b34801561020257600080fd5b503360009081526003602052604090205460d01b6040516001600160d01b03199091168152602001610158565b34801561023b57600080fd5b506000546040516001600160a01b039091168152602001610158565b34801561026357600080fd5b50600654604051908152602001610158565b610176610283366004610ba5565b6106ce565b34801561029457600080fd5b5061029d6109a9565b6040516101589190610c51565b3480156102b657600080fd5b506101766102c5366004610c93565b610a41565b6001600160d01b0319811660009081526004602090815260409182902080548351818402810184019094528084526060939283018282801561033557602002820191906000526020600020905b81546001600160a01b03168152600190910190602001808311610317575b50505050509050919050565b610349610ad1565b6103536000610b2b565b565b3360009081526003602052604090205460d01b6001600160d01b0319166103e95760405162461bcd60e51b815260206004820152602160248201527f54686973206164647265737320646964206e6f742072656e74206120626f6f6b60448201527f2e0000000000000000000000000000000000000000000000000000000000000060648201526084015b60405180910390fd5b3360009081526003602090815260408083205460d01b6001600160d01b031981168452600192839052922080546006906104319084906601000000000000900460ff16610ceb565b825460ff9182166101009390930a92830291909202199091161790555033600081815260036020908152604091829020805465ffffffffffff1916905581516001600160d01b031985168152908101929092527f18257fb96f4a0aee6841081b117fb073ef751cfb09f844f3290a348ce76bca5691015b60405180910390a150565b6104bb610ad1565b60008160ff161161050e5760405162461bcd60e51b815260206004820152601e60248201527f5175616e74697479206d757374206174206c65617374203120756e69742e000060448201526064016103e0565b6001600160d01b0319821660009081526001602052604081206002015460ff161515900361063357600580546001808201835560008381527f036b6384b5eca791c62761152d0c79bb0604c104a5fb6f4eb0703f3154bb3db084840401805465ffffffffffff948690066006026101000a948502191660d088901c9490940293909317909255915490916105a191610d0a565b604080516080810182526001600160d01b0319861680825260ff86811660208085019182528486019687526001606086018181526000958652918190529590932093518454915160d09190911c66ffffffffffffff19909216919091176601000000000000919092160217825592519181019190915590516002909101805460ff191691151591909117905550610685565b6001600160d01b031982166000908152600160205260409020805482919060069061066c9084906601000000000000900460ff16610ceb565b92506101000a81548160ff021916908360ff1602179055505b604080516001600160d01b03198416815260ff831660208201527f679fce4ebfbca8c286e7dd9acc05518d8f30d12056570c5fea9fe15c68b53459910160405180910390a15050565b3360009081526003602052604090205460d01b6001600160d01b0319161561075e5760405162461bcd60e51b815260206004820152602560248201527f5468697320416464726573732068617320616c72656164792072656e7420612060448201527f626f6f6b2e00000000000000000000000000000000000000000000000000000060648201526084016103e0565b6001600160d01b0319811660009081526001602081905260409091206002015460ff161515146107d05760405162461bcd60e51b815260206004820152601360248201527f426f6f6b206e6f7420617661696c61626c652e0000000000000000000000000060448201526064016103e0565b6001600160d01b031981166000908152600160205260409020546601000000000000900460ff166108435760405162461bcd60e51b815260206004820152601460248201527f4e6f742073746f636b20617661696c61626c652e00000000000000000000000060448201526064016103e0565b60065434146108ba5760405162461bcd60e51b815260206004820152602c60248201527f57726f6e67207472616e736665722076616c75652c2069742073686f756c642060448201527f626520312046696e6e65792e000000000000000000000000000000000000000060648201526084016103e0565b6001600160d01b03198116600090815260016020526040902080546601000000000000900460ff169060066108ee83610d1d565b82546101009290920a60ff81810219909316919092169190910217905550336000818152600360209081526040808320805465ffffffffffff191660d087901c1790556001600160d01b0319851680845260048352818420805460018101825590855293839020909301805473ffffffffffffffffffffffffffffffffffffffff1916851790558051928352908201929092527f397ab36c116dac057b746071d6433dfd40a0097573529456a753e216c0e4444491016104a8565b60606005805480602002602001604051908101604052809291908181526020018280548015610a3757602002820191906000526020600020906000905b82829054906101000a900460d01b79ffffffffffffffffffffffffffffffffffffffffffffffffffff1916815260200190600601906020826005010492830192600103820291508084116109e65790505b5050505050905090565b610a49610ad1565b6001600160a01b038116610ac55760405162461bcd60e51b815260206004820152602660248201527f4f776e61626c653a206e6577206f776e657220697320746865207a65726f206160448201527f646472657373000000000000000000000000000000000000000000000000000060648201526084016103e0565b610ace81610b2b565b50565b6000546001600160a01b031633146103535760405162461bcd60e51b815260206004820181905260248201527f4f776e61626c653a2063616c6c6572206973206e6f7420746865206f776e657260448201526064016103e0565b600080546001600160a01b0383811673ffffffffffffffffffffffffffffffffffffffff19831681178455604051919092169283917f8be0079c531659141344cd1fd0a4f28419497f9722a3daafe3b4186f6b6457e09190a35050565b80356001600160d01b031981168114610ba057600080fd5b919050565b600060208284031215610bb757600080fd5b610bc082610b88565b9392505050565b6020808252825182820181905260009190848201906040850190845b81811015610c085783516001600160a01b031683529284019291840191600101610be3565b50909695505050505050565b60008060408385031215610c2757600080fd5b610c3083610b88565b9150602083013560ff81168114610c4657600080fd5b809150509250929050565b6020808252825182820181905260009190848201906040850190845b81811015610c085783516001600160d01b03191683529284019291840191600101610c6d565b600060208284031215610ca557600080fd5b81356001600160a01b0381168114610bc057600080fd5b7f4e487b7100000000000000000000000000000000000000000000000000000000600052601160045260246000fd5b60ff8181168382160190811115610d0457610d04610cbc565b92915050565b81810381811115610d0457610d04610cbc565b600060ff821680610d3057610d30610cbc565b600019019291505056fea26469706673582212207ff8903e7f0158416b09780bf3b72c68793c8686594e126383825256b04f2ea964736f6c63430008110033",
  "linkReferences": {},
  "deployedLinkReferences": {}
}